{
  "_format": "hh-sol-artifact-1",
  "contractName": "TechExamNFT",
  "sourceName": "contracts/TechExamNFT.sol",
  "abi": [
    {
      "inputs": [],
      "stateMutability": "nonpayable",
      "type": "constructor"
    },
    {
      "inputs": [],
      "name": "ERC721EnumerableForbiddenBatchMint",
      "type": "error"
    },
    {
      "inputs": [
        {
          "internalType": "address",
          "name": "sender",
          "type": "address"
        },
        {
          "internalType": "uint256",
          "name": "tokenId",
          "type": "uint256"
        },
        {
          "internalType": "address",
          "name": "owner",
          "type": "address"
        }
      ],
      "name": "ERC721IncorrectOwner",
      "type": "error"
    },
    {
      "inputs": [
        {
          "internalType": "address",
          "name": "operator",
          "type": "address"
        },
        {
          "internalType": "uint256",
          "name": "tokenId",
          "type": "uint256"
        }
      ],
      "name": "ERC721InsufficientApproval",
      "type": "error"
    },
    {
      "inputs": [
        {
          "internalType": "address",
          "name": "approver",
          "type": "address"
        }
      ],
      "name": "ERC721InvalidApprover",
      "type": "error"
    },
    {
      "inputs": [
        {
          "internalType": "address",
          "name": "operator",
          "type": "address"
        }
      ],
      "name": "ERC721InvalidOperator",
      "type": "error"
    },
    {
      "inputs": [
        {
          "internalType": "address",
          "name": "owner",
          "type": "address"
        }
      ],
      "name": "ERC721InvalidOwner",
      "type": "error"
    },
    {
      "inputs": [
        {
          "internalType": "address",
          "name": "receiver",
          "type": "address"
        }
      ],
      "name": "ERC721InvalidReceiver",
      "type": "error"
    },
    {
      "inputs": [
        {
          "internalType": "address",
          "name": "sender",
          "type": "address"
        }
      ],
      "name": "ERC721InvalidSender",
      "type": "error"
    },
    {
      "inputs": [
        {
          "internalType": "uint256",
          "name": "tokenId",
          "type": "uint256"
        }
      ],
      "name": "ERC721NonexistentToken",
      "type": "error"
    },
    {
      "inputs": [
        {
          "internalType": "address",
          "name": "owner",
          "type": "address"
        },
        {
          "internalType": "uint256",
          "name": "index",
          "type": "uint256"
        }
      ],
      "name": "ERC721OutOfBoundsIndex",
      "type": "error"
    },
    {
      "inputs": [
        {
          "internalType": "address",
          "name": "owner",
          "type": "address"
        }
      ],
      "name": "OwnableInvalidOwner",
      "type": "error"
    },
    {
      "inputs": [
        {
          "internalType": "address",
          "name": "account",
          "type": "address"
        }
      ],
      "name": "OwnableUnauthorizedAccount",
      "type": "error"
    },
    {
      "anonymous": false,
      "inputs": [
        {
          "indexed": true,
          "internalType": "address",
          "name": "owner",
          "type": "address"
        },
        {
          "indexed": true,
          "internalType": "address",
          "name": "approved",
          "type": "address"
        },
        {
          "indexed": true,
          "internalType": "uint256",
          "name": "tokenId",
          "type": "uint256"
        }
      ],
      "name": "Approval",
      "type": "event"
    },
    {
      "anonymous": false,
      "inputs": [
        {
          "indexed": true,
          "internalType": "address",
          "name": "owner",
          "type": "address"
        },
        {
          "indexed": true,
          "internalType": "address",
          "name": "operator",
          "type": "address"
        },
        {
          "indexed": false,
          "internalType": "bool",
          "name": "approved",
          "type": "bool"
        }
      ],
      "name": "ApprovalForAll",
      "type": "event"
    },
    {
      "anonymous": false,
      "inputs": [
        {
          "indexed": false,
          "internalType": "uint256",
          "name": "_fromTokenId",
          "type": "uint256"
        },
        {
          "indexed": false,
          "internalType": "uint256",
          "name": "_toTokenId",
          "type": "uint256"
        }
      ],
      "name": "BatchMetadataUpdate",
      "type": "event"
    },
    {
      "anonymous": false,
      "inputs": [
        {
          "indexed": false,
          "internalType": "uint256",
          "name": "_tokenId",
          "type": "uint256"
        }
      ],
      "name": "MetadataUpdate",
      "type": "event"
    },
    {
      "anonymous": false,
      "inputs": [
        {
          "indexed": false,
          "internalType": "uint256",
          "name": "oldPrice",
          "type": "uint256"
        },
        {
          "indexed": false,
          "internalType": "uint256",
          "name": "newPrice",
          "type": "uint256"
        }
      ],
      "name": "MintPriceUpdated",
      "type": "event"
    },
    {
      "anonymous": false,
      "inputs": [
        {
          "indexed": true,
          "internalType": "address",
          "name": "previousOwner",
          "type": "address"
        },
        {
          "indexed": true,
          "internalType": "address",
          "name": "newOwner",
          "type": "address"
        }
      ],
      "name": "OwnershipTransferred",
      "type": "event"
    },
    {
      "anonymous": false,
      "inputs": [
        {
          "indexed": true,
          "internalType": "address",
          "name": "to",
          "type": "address"
        },
        {
          "indexed": true,
          "internalType": "uint256",
          "name": "tokenId",
          "type": "uint256"
        },
        {
          "indexed": false,
          "internalType": "string",
          "name": "tokenURI",
          "type": "string"
        }
      ],
      "name": "TokenMinted",
      "type": "event"
    },
    {
      "anonymous": false,
      "inputs": [
        {
          "indexed": true,
          "internalType": "address",
          "name": "from",
          "type": "address"
        },
        {
          "indexed": true,
          "internalType": "address",
          "name": "to",
          "type": "address"
        },
        {
          "indexed": true,
          "internalType": "uint256",
          "name": "tokenId",
          "type": "uint256"
        }
      ],
      "name": "Transfer",
      "type": "event"
    },
    {
      "inputs": [],
      "name": "MAX_SUPPLY",
      "outputs": [
        {
          "internalType": "uint256",
          "name": "",
          "type": "uint256"
        }
      ],
      "stateMutability": "view",
      "type": "function"
    },
    {
      "inputs": [
        {
          "internalType": "address",
          "name": "to",
          "type": "address"
        },
        {
          "internalType": "uint256",
          "name": "tokenId",
          "type": "uint256"
        }
      ],
      "name": "approve",
      "outputs": [],
      "stateMutability": "nonpayable",
      "type": "function"
    },
    {
      "inputs": [
        {
          "internalType": "address",
          "name": "owner",
          "type": "address"
        }
      ],
      "name": "balanceOf",
      "outputs": [
        {
          "internalType": "uint256",
          "name": "",
          "type": "uint256"
        }
      ],
      "stateMutability": "view",
      "type": "function"
    },
    {
      "inputs": [
        {
          "internalType": "address",
          "name": "to",
          "type": "address"
        },
        {
          "internalType": "string[]",
          "name": "tokenURIs",
          "type": "string[]"
        }
      ],
      "name": "batchMint",
      "outputs": [],
      "stateMutability": "payable",
      "type": "function"
    },
    {
      "inputs": [
        {
          "internalType": "uint256",
          "name": "tokenId",
          "type": "uint256"
        }
      ],
      "name": "exists",
      "outputs": [
        {
          "internalType": "bool",
          "name": "",
          "type": "bool"
        }
      ],
      "stateMutability": "view",
      "type": "function"
    },
    {
      "inputs": [
        {
          "internalType": "uint256",
          "name": "tokenId",
          "type": "uint256"
        }
      ],
      "name": "getApproved",
      "outputs": [
        {
          "internalType": "address",
          "name": "",
          "type": "address"
        }
      ],
      "stateMutability": "view",
      "type": "function"
    },
    {
      "inputs": [],
      "name": "getCurrentSupply",
      "outputs": [
        {
          "internalType": "uint256",
          "name": "",
          "type": "uint256"
        }
      ],
      "stateMutability": "view",
      "type": "function"
    },
    {
      "inputs": [
        {
          "internalType": "address",
          "name": "owner",
          "type": "address"
        },
        {
          "internalType": "address",
          "name": "operator",
          "type": "address"
        }
      ],
      "name": "isApprovedForAll",
      "outputs": [
        {
          "internalType": "bool",
          "name": "",
          "type": "bool"
        }
      ],
      "stateMutability": "view",
      "type": "function"
    },
    {
      "inputs": [
        {
          "internalType": "address",
          "name": "to",
          "type": "address"
        },
        {
          "internalType": "string",
          "name": "uri",
          "type": "string"
        }
      ],
      "name": "mint",
      "outputs": [],
      "stateMutability": "payable",
      "type": "function"
    },
    {
      "inputs": [],
      "name": "mintPrice",
      "outputs": [
        {
          "internalType": "uint256",
          "name": "",
          "type": "uint256"
        }
      ],
      "stateMutability": "view",
      "type": "function"
    },
    {
      "inputs": [],
      "name": "name",
      "outputs": [
        {
          "internalType": "string",
          "name": "",
          "type": "string"
        }
      ],
      "stateMutability": "view",
      "type": "function"
    },
    {
      "inputs": [],
      "name": "owner",
      "outputs": [
        {
          "internalType": "address",
          "name": "",
          "type": "address"
        }
      ],
      "stateMutability": "view",
      "type": "function"
    },
    {
      "inputs": [
        {
          "internalType": "address",
          "name": "to",
          "type": "address"
        },
        {
          "internalType": "string",
          "name": "uri",
          "type": "string"
        }
      ],
      "name": "ownerMint",
      "outputs": [],
      "stateMutability": "nonpayable",
      "type": "function"
    },
    {
      "inputs": [
        {
          "internalType": "uint256",
          "name": "tokenId",
          "type": "uint256"
        }
      ],
      "name": "ownerOf",
      "outputs": [
        {
          "internalType": "address",
          "name": "",
          "type": "address"
        }
      ],
      "stateMutability": "view",
      "type": "function"
    },
    {
      "inputs": [],
      "name": "renounceOwnership",
      "outputs": [],
      "stateMutability": "nonpayable",
      "type": "function"
    },
    {
      "inputs": [
        {
          "internalType": "address",
          "name": "from",
          "type": "address"
        },
        {
          "internalType": "address",
          "name": "to",
          "type": "address"
        },
        {
          "internalType": "uint256",
          "name": "tokenId",
          "type": "uint256"
        }
      ],
      "name": "safeTransferFrom",
      "outputs": [],
      "stateMutability": "nonpayable",
      "type": "function"
    },
    {
      "inputs": [
        {
          "internalType": "address",
          "name": "from",
          "type": "address"
        },
        {
          "internalType": "address",
          "name": "to",
          "type": "address"
        },
        {
          "internalType": "uint256",
          "name": "tokenId",
          "type": "uint256"
        },
        {
          "internalType": "bytes",
          "name": "data",
          "type": "bytes"
        }
      ],
      "name": "safeTransferFrom",
      "outputs": [],
      "stateMutability": "nonpayable",
      "type": "function"
    },
    {
      "inputs": [
        {
          "internalType": "address",
          "name": "operator",
          "type": "address"
        },
        {
          "internalType": "bool",
          "name": "approved",
          "type": "bool"
        }
      ],
      "name": "setApprovalForAll",
      "outputs": [],
      "stateMutability": "nonpayable",
      "type": "function"
    },
    {
      "inputs": [
        {
          "internalType": "uint256",
          "name": "newPrice",
          "type": "uint256"
        }
      ],
      "name": "setMintPrice",
      "outputs": [],
      "stateMutability": "nonpayable",
      "type": "function"
    },
    {
      "inputs": [
        {
          "internalType": "bytes4",
          "name": "interfaceId",
          "type": "bytes4"
        }
      ],
      "name": "supportsInterface",
      "outputs": [
        {
          "internalType": "bool",
          "name": "",
          "type": "bool"
        }
      ],
      "stateMutability": "view",
      "type": "function"
    },
    {
      "inputs": [],
      "name": "symbol",
      "outputs": [
        {
          "internalType": "string",
          "name": "",
          "type": "string"
        }
      ],
      "stateMutability": "view",
      "type": "function"
    },
    {
      "inputs": [
        {
          "internalType": "uint256",
          "name": "index",
          "type": "uint256"
        }
      ],
      "name": "tokenByIndex",
      "outputs": [
        {
          "internalType": "uint256",
          "name": "",
          "type": "uint256"
        }
      ],
      "stateMutability": "view",
      "type": "function"
    },
    {
      "inputs": [
        {
          "internalType": "address",
          "name": "owner",
          "type": "address"
        },
        {
          "internalType": "uint256",
          "name": "index",
          "type": "uint256"
        }
      ],
      "name": "tokenOfOwnerByIndex",
      "outputs": [
        {
          "internalType": "uint256",
          "name": "",
          "type": "uint256"
        }
      ],
      "stateMutability": "view",
      "type": "function"
    },
    {
      "inputs": [
        {
          "internalType": "uint256",
          "name": "tokenId",
          "type": "uint256"
        }
      ],
      "name": "tokenURI",
      "outputs": [
        {
          "internalType": "string",
          "name": "",
          "type": "string"
        }
      ],
      "stateMutability": "view",
      "type": "function"
    },
    {
      "inputs": [
        {
          "internalType": "address",
          "name": "owner",
          "type": "address"
        }
      ],
      "name": "tokensOfOwner",
      "outputs": [
        {
          "internalType": "uint256[]",
          "name": "",
          "type": "uint256[]"
        }
      ],
      "stateMutability": "view",
      "type": "function"
    },
    {
      "inputs": [],
      "name": "totalSupply",
      "outputs": [
        {
          "internalType": "uint256",
          "name": "",
          "type": "uint256"
        }
      ],
      "stateMutability": "view",
      "type": "function"
    },
    {
      "inputs": [
        {
          "internalType": "address",
          "name": "from",
          "type": "address"
        },
        {
          "internalType": "address",
          "name": "to",
          "type": "address"
        },
        {
          "internalType": "uint256",
          "name": "tokenId",
          "type": "uint256"
        }
      ],
      "name": "transferFrom",
      "outputs": [],
      "stateMutability": "nonpayable",
      "type": "function"
    },
    {
      "inputs": [
        {
          "internalType": "address",
          "name": "newOwner",
          "type": "address"
        }
      ],
      "name": "transferOwnership",
      "outputs": [],
      "stateMutability": "nonpayable",
      "type": "function"
    },
    {
      "inputs": [
        {
          "internalType": "address",
          "name": "from",
          "type": "address"
        },
        {
          "internalType": "address",
          "name": "to",
          "type": "address"
        },
        {
          "internalType": "uint256",
          "name": "tokenId",
          "type": "uint256"
        }
      ],
      "name": "transferToken",
      "outputs": [],
      "stateMutability": "nonpayable",
      "type": "function"
    },
    {
      "inputs": [],
      "name": "withdraw",
      "outputs": [],
      "stateMutability": "nonpayable",
      "type": "function"
    }
  ],
  "bytecode": "0x6080604052662386f26fc10000600d553480156200001c57600080fd5b50336040518060400160405280600d81526020017f54656368204578616d204e4654000000000000000000000000000000000000008152506040518060400160405280600581526020017f54454e465400000000000000000000000000000000000000000000000000000081525081600090816200009b919062000485565b508060019081620000ad919062000485565b505050600073ffffffffffffffffffffffffffffffffffffffff168173ffffffffffffffffffffffffffffffffffffffff1603620001255760006040517f1e4fbdf70000000000000000000000000000000000000000000000000000000081526004016200011c9190620005b1565b60405180910390fd5b62000136816200014560201b60201c565b506001600c81905550620005ce565b6000600b60009054906101000a900473ffffffffffffffffffffffffffffffffffffffff16905081600b60006101000a81548173ffffffffffffffffffffffffffffffffffffffff021916908373ffffffffffffffffffffffffffffffffffffffff1602179055508173ffffffffffffffffffffffffffffffffffffffff168173ffffffffffffffffffffffffffffffffffffffff167f8be0079c531659141344cd1fd0a4f28419497f9722a3daafe3b4186f6b6457e060405160405180910390a35050565b600081519050919050565b7f4e487b7100000000000000000000000000000000000000000000000000000000600052604160045260246000fd5b7f4e487b7100000000000000000000000000000000000000000000000000000000600052602260045260246000fd5b600060028204905060018216806200028d57607f821691505b602082108103620002a357620002a262000245565b5b50919050565b60008190508160005260206000209050919050565b60006020601f8301049050919050565b600082821b905092915050565b6000600883026200030d7fffffffffffffffffffffffffffffffffffffffffffffffffffffffffffffffff82620002ce565b620003198683620002ce565b95508019841693508086168417925050509392505050565b6000819050919050565b6000819050919050565b600062000366620003606200035a8462000331565b6200033b565b62000331565b9050919050565b6000819050919050565b620003828362000345565b6200039a62000391826200036d565b848454620002db565b825550505050565b600090565b620003b1620003a2565b620003be81848462000377565b505050565b5b81811015620003e657620003da600082620003a7565b600181019050620003c4565b5050565b601f8211156200043557620003ff81620002a9565b6200040a84620002be565b810160208510156200041a578190505b620004326200042985620002be565b830182620003c3565b50505b505050565b600082821c905092915050565b60006200045a600019846008026200043a565b1980831691505092915050565b600062000475838362000447565b9150826002028217905092915050565b62000490826200020b565b67ffffffffffffffff811115620004ac57620004ab62000216565b5b620004b8825462000274565b620004c5828285620003ea565b600060209050601f831160018114620004fd5760008415620004e8578287015190505b620004f4858262000467565b86555062000564565b601f1984166200050d86620002a9565b60005b82811015620005375784890151825560018201915060208501945060208101905062000510565b8683101562000557578489015162000553601f89168262000447565b8355505b6001600288020188555050505b505050505050565b600073ffffffffffffffffffffffffffffffffffffffff82169050919050565b600062000599826200056c565b9050919050565b620005ab816200058c565b82525050565b6000602082019050620005c86000830184620005a0565b92915050565b613d5480620005de6000396000f3fe6080604052600436106101cd5760003560e01c80636817c76c116100f7578063b88d4fde11610095578063f2f18baa11610064578063f2f18baa146106a1578063f2fde38b146106bd578063f4a0a528146106e6578063f5537ede1461070f576101cd565b8063b88d4fde146105e2578063c87b56dd1461060b578063d0def52114610648578063e985e9c514610664576101cd565b80638462151c116100d15780638462151c146105265780638da5cb5b1461056357806395d89b411461058e578063a22cb465146105b9576101cd565b80636817c76c146104a757806370a08231146104d2578063715018a61461050f576101cd565b806332cb6b0c1161016f5780634f3e1efc1161013e5780634f3e1efc146103c55780634f558e79146103f05780634f6ccce71461042d5780636352211e1461046a576101cd565b806332cb6b0c146103315780633ccfd60b1461035c57806341d5b8031461037357806342842e0e1461039c576101cd565b8063095ea7b3116101ab578063095ea7b31461027757806318160ddd146102a057806323b872dd146102cb5780632f745c59146102f4576101cd565b806301ffc9a7146101d257806306fdde031461020f578063081812fc1461023a575b600080fd5b3480156101de57600080fd5b506101f960048036038101906101f49190612c3d565b610738565b6040516102069190612c85565b60405180910390f35b34801561021b57600080fd5b5061022461074a565b6040516102319190612d30565b60405180910390f35b34801561024657600080fd5b50610261600480360381019061025c9190612d88565b6107dc565b60405161026e9190612df6565b60405180910390f35b34801561028357600080fd5b5061029e60048036038101906102999190612e3d565b6107f8565b005b3480156102ac57600080fd5b506102b561080e565b6040516102c29190612e8c565b60405180910390f35b3480156102d757600080fd5b506102f260048036038101906102ed9190612ea7565b61081b565b005b34801561030057600080fd5b5061031b60048036038101906103169190612e3d565b61091d565b6040516103289190612e8c565b60405180910390f35b34801561033d57600080fd5b506103466109c6565b6040516103539190612e8c565b60405180910390f35b34801561036857600080fd5b506103716109cc565b005b34801561037f57600080fd5b5061039a6004803603810190610395919061302f565b610a6d565b005b3480156103a857600080fd5b506103c360048036038101906103be9190612ea7565b610b43565b005b3480156103d157600080fd5b506103da610b63565b6040516103e79190612e8c565b60405180910390f35b3480156103fc57600080fd5b5061041760048036038101906104129190612d88565b610b79565b6040516104249190612c85565b60405180910390f35b34801561043957600080fd5b50610454600480360381019061044f9190612d88565b610bba565b6040516104619190612e8c565b60405180910390f35b34801561047657600080fd5b50610491600480360381019061048c9190612d88565b610c30565b60405161049e9190612df6565b60405180910390f35b3480156104b357600080fd5b506104bc610c42565b6040516104c99190612e8c565b60405180910390f35b3480156104de57600080fd5b506104f960048036038101906104f4919061308b565b610c48565b6040516105069190612e8c565b60405180910390f35b34801561051b57600080fd5b50610524610d02565b005b34801561053257600080fd5b5061054d6004803603810190610548919061308b565b610d16565b60405161055a9190613176565b60405180910390f35b34801561056f57600080fd5b50610578610dbe565b6040516105859190612df6565b60405180910390f35b34801561059a57600080fd5b506105a3610de8565b6040516105b09190612d30565b60405180910390f35b3480156105c557600080fd5b506105e060048036038101906105db91906131c4565b610e7a565b005b3480156105ee57600080fd5b50610609600480360381019061060491906132a5565b610e90565b005b34801561061757600080fd5b50610632600480360381019061062d9190612d88565b610eb5565b60405161063f9190612d30565b60405180910390f35b610662600480360381019061065d919061302f565b610ec7565b005b34801561067057600080fd5b5061068b60048036038101906106869190613328565b611039565b6040516106989190612c85565b60405180910390f35b6106bb60048036038101906106b6919061344e565b6110cd565b005b3480156106c957600080fd5b506106e460048036038101906106df919061308b565b611307565b005b3480156106f257600080fd5b5061070d60048036038101906107089190612d88565b61138d565b005b34801561071b57600080fd5b5061073660048036038101906107319190612ea7565b6113e0565b005b600061074382611442565b9050919050565b606060008054610759906134d9565b80601f0160208091040260200160405190810160405280929190818152602001828054610785906134d9565b80156107d25780601f106107a7576101008083540402835291602001916107d2565b820191906000526020600020905b8154815290600101906020018083116107b557829003601f168201915b5050505050905090565b60006107e7826114bc565b506107f182611544565b9050919050565b61080a8282610805611581565b611589565b5050565b6000600980549050905090565b600073ffffffffffffffffffffffffffffffffffffffff168273ffffffffffffffffffffffffffffffffffffffff160361088d5760006040517f64a0ae920000000000000000000000000000000000000000000000000000000081526004016108849190612df6565b60405180910390fd5b60006108a1838361089c611581565b61159b565b90508373ffffffffffffffffffffffffffffffffffffffff168173ffffffffffffffffffffffffffffffffffffffff1614610917578382826040517f64283d7b00000000000000000000000000000000000000000000000000000000815260040161090e9392919061350a565b60405180910390fd5b50505050565b600061092883610c48565b821061096d5782826040517fa57d13dc000000000000000000000000000000000000000000000000000000008152600401610964929190613541565b60405180910390fd5b600760008473ffffffffffffffffffffffffffffffffffffffff1673ffffffffffffffffffffffffffffffffffffffff168152602001908152602001600020600083815260200190815260200160002054905092915050565b61271081565b6109d46115b1565b600047905060008111610a1c576040517f08c379a0000000000000000000000000000000000000000000000000000000008152600401610a13906135b6565b60405180910390fd5b610a24610dbe565b73ffffffffffffffffffffffffffffffffffffffff166108fc829081150290604051600060405180830381858888f19350505050158015610a69573d6000803e3d6000fd5b5050565b610a756115b1565b612710600c541115610abc576040517f08c379a0000000000000000000000000000000000000000000000000000000008152600401610ab390613622565b60405180910390fd5b6000600c549050600c6000815480929190610ad690613671565b9190505550610ae58382611638565b610aef8183611656565b808373ffffffffffffffffffffffffffffffffffffffff167fdf92894dc4675a7333caa5903b69cf5d8e8ec0d3f361c88207b6688e525703bb84604051610b369190612d30565b60405180910390a3505050565b610b5e83838360405180602001604052806000815250610e90565b505050565b60006001600c54610b7491906136b9565b905090565b60008073ffffffffffffffffffffffffffffffffffffffff16610b9b836116b2565b73ffffffffffffffffffffffffffffffffffffffff1614159050919050565b6000610bc461080e565b8210610c0a576000826040517fa57d13dc000000000000000000000000000000000000000000000000000000008152600401610c01929190613541565b60405180910390fd5b60098281548110610c1e57610c1d6136ed565b5b90600052602060002001549050919050565b6000610c3b826114bc565b9050919050565b600d5481565b60008073ffffffffffffffffffffffffffffffffffffffff168273ffffffffffffffffffffffffffffffffffffffff1603610cbb5760006040517f89c62b64000000000000000000000000000000000000000000000000000000008152600401610cb29190612df6565b60405180910390fd5b600360008373ffffffffffffffffffffffffffffffffffffffff1673ffffffffffffffffffffffffffffffffffffffff168152602001908152602001600020549050919050565b610d0a6115b1565b610d1460006116ef565b565b60606000610d2383610c48565b905060008167ffffffffffffffff811115610d4157610d40612f04565b5b604051908082528060200260200182016040528015610d6f5781602001602082028036833780820191505090505b50905060005b82811015610db357610d87858261091d565b828281518110610d9a57610d996136ed565b5b6020026020010181815250508080600101915050610d75565b508092505050919050565b6000600b60009054906101000a900473ffffffffffffffffffffffffffffffffffffffff16905090565b606060018054610df7906134d9565b80601f0160208091040260200160405190810160405280929190818152602001828054610e23906134d9565b8015610e705780601f10610e4557610100808354040283529160200191610e70565b820191906000526020600020905b815481529060010190602001808311610e5357829003601f168201915b5050505050905090565b610e8c610e85611581565b83836117b5565b5050565b610e9b84848461081b565b610eaf610ea6611581565b85858585611924565b50505050565b6060610ec082611ad5565b9050919050565b612710600c541115610f0e576040517f08c379a0000000000000000000000000000000000000000000000000000000008152600401610f0590613622565b60405180910390fd5b600d54341015610f53576040517f08c379a0000000000000000000000000000000000000000000000000000000008152600401610f4a90613768565b60405180910390fd5b6000600c549050600c6000815480929190610f6d90613671565b9190505550610f7c8382611638565b610f868183611656565b808373ffffffffffffffffffffffffffffffffffffffff167fdf92894dc4675a7333caa5903b69cf5d8e8ec0d3f361c88207b6688e525703bb84604051610fcd9190612d30565b60405180910390a3600d54341115611034573373ffffffffffffffffffffffffffffffffffffffff166108fc600d543461100791906136b9565b9081150290604051600060405180830381858888f19350505050158015611032573d6000803e3d6000fd5b505b505050565b6000600560008473ffffffffffffffffffffffffffffffffffffffff1673ffffffffffffffffffffffffffffffffffffffff16815260200190815260200160002060008373ffffffffffffffffffffffffffffffffffffffff1673ffffffffffffffffffffffffffffffffffffffff16815260200190815260200160002060009054906101000a900460ff16905092915050565b60008151905060008111611116576040517f08c379a000000000000000000000000000000000000000000000000000000000815260040161110d906137d4565b60405180910390fd5b612710600182600c5461112991906137f4565b61113391906136b9565b1115611174576040517f08c379a000000000000000000000000000000000000000000000000000000000815260040161116b90613622565b60405180910390fd5b80600d546111829190613828565b3410156111c4576040517f08c379a00000000000000000000000000000000000000000000000000000000081526004016111bb90613768565b60405180910390fd5b60005b81811015611293576000600c549050600c60008154809291906111e990613671565b91905055506111f88582611638565b61121c8185848151811061120f5761120e6136ed565b5b6020026020010151611656565b808573ffffffffffffffffffffffffffffffffffffffff167fdf92894dc4675a7333caa5903b69cf5d8e8ec0d3f361c88207b6688e525703bb868581518110611268576112676136ed565b5b602002602001015160405161127d9190612d30565b60405180910390a35080806001019150506111c7565b50600081600d546112a49190613828565b905080341115611301573373ffffffffffffffffffffffffffffffffffffffff166108fc82346112d491906136b9565b9081150290604051600060405180830381858888f193505050501580156112ff573d6000803e3d6000fd5b505b50505050565b61130f6115b1565b600073ffffffffffffffffffffffffffffffffffffffff168173ffffffffffffffffffffffffffffffffffffffff16036113815760006040517f1e4fbdf70000000000000000000000000000000000000000000000000000000081526004016113789190612df6565b60405180910390fd5b61138a816116ef565b50565b6113956115b1565b6000600d54905081600d819055507f2e1c9e000c6e8dda4d03536adb13b7cb6034ccff90d17f01de381e4d5097b52581836040516113d492919061386a565b60405180910390a15050565b6113f36113ec82610c30565b3383611be8565b611432576040517f08c379a0000000000000000000000000000000000000000000000000000000008152600401611429906138df565b60405180910390fd5b61143d838383611ca9565b505050565b60007f780e9d63000000000000000000000000000000000000000000000000000000007bffffffffffffffffffffffffffffffffffffffffffffffffffffffff1916827bffffffffffffffffffffffffffffffffffffffffffffffffffffffff191614806114b557506114b482611e16565b5b9050919050565b6000806114c8836116b2565b9050600073ffffffffffffffffffffffffffffffffffffffff168173ffffffffffffffffffffffffffffffffffffffff160361153b57826040517f7e2732890000000000000000000000000000000000000000000000000000000081526004016115329190612e8c565b60405180910390fd5b80915050919050565b60006004600083815260200190815260200160002060009054906101000a900473ffffffffffffffffffffffffffffffffffffffff169050919050565b600033905090565b6115968383836001611e77565b505050565b60006115a884848461203c565b90509392505050565b6115b9611581565b73ffffffffffffffffffffffffffffffffffffffff166115d7610dbe565b73ffffffffffffffffffffffffffffffffffffffff1614611636576115fa611581565b6040517f118cdaa700000000000000000000000000000000000000000000000000000000815260040161162d9190612df6565b60405180910390fd5b565b611652828260405180602001604052806000815250612159565b5050565b806006600084815260200190815260200160002090816116769190613aab565b507ff8e1a15aba9398e019f0b49df1a4fde98ee17ae345cb5f6b5e2c27f5033e8ce7826040516116a69190612e8c565b60405180910390a15050565b60006002600083815260200190815260200160002060009054906101000a900473ffffffffffffffffffffffffffffffffffffffff169050919050565b6000600b60009054906101000a900473ffffffffffffffffffffffffffffffffffffffff16905081600b60006101000a81548173ffffffffffffffffffffffffffffffffffffffff021916908373ffffffffffffffffffffffffffffffffffffffff1602179055508173ffffffffffffffffffffffffffffffffffffffff168173ffffffffffffffffffffffffffffffffffffffff167f8be0079c531659141344cd1fd0a4f28419497f9722a3daafe3b4186f6b6457e060405160405180910390a35050565b600073ffffffffffffffffffffffffffffffffffffffff168273ffffffffffffffffffffffffffffffffffffffff160361182657816040517f5b08ba1800000000000000000000000000000000000000000000000000000000815260040161181d9190612df6565b60405180910390fd5b80600560008573ffffffffffffffffffffffffffffffffffffffff1673ffffffffffffffffffffffffffffffffffffffff16815260200190815260200160002060008473ffffffffffffffffffffffffffffffffffffffff1673ffffffffffffffffffffffffffffffffffffffff16815260200190815260200160002060006101000a81548160ff0219169083151502179055508173ffffffffffffffffffffffffffffffffffffffff168373ffffffffffffffffffffffffffffffffffffffff167f17307eab39ab6107e8899845ad3d59bd9653f200f220920489ca2b5937696c31836040516119179190612c85565b60405180910390a3505050565b60008373ffffffffffffffffffffffffffffffffffffffff163b1115611ace578273ffffffffffffffffffffffffffffffffffffffff1663150b7a02868685856040518563ffffffff1660e01b81526004016119839493929190613bd2565b6020604051808303816000875af19250505080156119bf57506040513d601f19601f820116820180604052508101906119bc9190613c33565b60015b611a43573d80600081146119ef576040519150601f19603f3d011682016040523d82523d6000602084013e6119f4565b606091505b506000815103611a3b57836040517f64a0ae92000000000000000000000000000000000000000000000000000000008152600401611a329190612df6565b60405180910390fd5b805160208201fd5b63150b7a0260e01b7bffffffffffffffffffffffffffffffffffffffffffffffffffffffff1916817bffffffffffffffffffffffffffffffffffffffffffffffffffffffff191614611acc57836040517f64a0ae92000000000000000000000000000000000000000000000000000000008152600401611ac39190612df6565b60405180910390fd5b505b5050505050565b6060611ae0826114bc565b506000600660008481526020019081526020016000208054611b01906134d9565b80601f0160208091040260200160405190810160405280929190818152602001828054611b2d906134d9565b8015611b7a5780601f10611b4f57610100808354040283529160200191611b7a565b820191906000526020600020905b815481529060010190602001808311611b5d57829003601f168201915b505050505090506000611b8b61217d565b90506000815103611ba0578192505050611be3565b600082511115611bd5578082604051602001611bbd929190613c9c565b60405160208183030381529060405292505050611be3565b611bde84612194565b925050505b919050565b60008073ffffffffffffffffffffffffffffffffffffffff168373ffffffffffffffffffffffffffffffffffffffff1614158015611ca057508273ffffffffffffffffffffffffffffffffffffffff168473ffffffffffffffffffffffffffffffffffffffff161480611c615750611c608484611039565b5b80611c9f57508273ffffffffffffffffffffffffffffffffffffffff16611c8783611544565b73ffffffffffffffffffffffffffffffffffffffff16145b5b90509392505050565b600073ffffffffffffffffffffffffffffffffffffffff168273ffffffffffffffffffffffffffffffffffffffff1603611d1b5760006040517f64a0ae92000000000000000000000000000000000000000000000000000000008152600401611d129190612df6565b60405180910390fd5b6000611d298383600061159b565b9050600073ffffffffffffffffffffffffffffffffffffffff168173ffffffffffffffffffffffffffffffffffffffff1603611d9c57816040517f7e273289000000000000000000000000000000000000000000000000000000008152600401611d939190612e8c565b60405180910390fd5b8373ffffffffffffffffffffffffffffffffffffffff168173ffffffffffffffffffffffffffffffffffffffff1614611e10578382826040517f64283d7b000000000000000000000000000000000000000000000000000000008152600401611e079392919061350a565b60405180910390fd5b50505050565b6000634906490660e01b7bffffffffffffffffffffffffffffffffffffffffffffffffffffffff1916827bffffffffffffffffffffffffffffffffffffffffffffffffffffffff19161480611e705750611e6f826121fd565b5b9050919050565b8080611eb05750600073ffffffffffffffffffffffffffffffffffffffff168273ffffffffffffffffffffffffffffffffffffffff1614155b15611fe4576000611ec0846114bc565b9050600073ffffffffffffffffffffffffffffffffffffffff168373ffffffffffffffffffffffffffffffffffffffff1614158015611f2b57508273ffffffffffffffffffffffffffffffffffffffff168173ffffffffffffffffffffffffffffffffffffffff1614155b8015611f3e5750611f3c8184611039565b155b15611f8057826040517fa9fbf51f000000000000000000000000000000000000000000000000000000008152600401611f779190612df6565b60405180910390fd5b8115611fe257838573ffffffffffffffffffffffffffffffffffffffff168273ffffffffffffffffffffffffffffffffffffffff167f8c5be1e5ebec7d5bd14f71427d1e84f3dd0314c0f7b2291e5b200ac8c7c3b92560405160405180910390a45b505b836004600085815260200190815260200160002060006101000a81548173ffffffffffffffffffffffffffffffffffffffff021916908373ffffffffffffffffffffffffffffffffffffffff16021790555050505050565b60008061204a8585856122df565b9050600073ffffffffffffffffffffffffffffffffffffffff168173ffffffffffffffffffffffffffffffffffffffff160361208e57612089846124f9565b6120cd565b8473ffffffffffffffffffffffffffffffffffffffff168173ffffffffffffffffffffffffffffffffffffffff16146120cc576120cb8185612542565b5b5b600073ffffffffffffffffffffffffffffffffffffffff168573ffffffffffffffffffffffffffffffffffffffff160361210f5761210a8461262d565b61214e565b8473ffffffffffffffffffffffffffffffffffffffff168173ffffffffffffffffffffffffffffffffffffffff161461214d5761214c85856126fe565b5b5b809150509392505050565b6121638383612789565b61217861216e611581565b6000858585611924565b505050565b606060405180602001604052806000815250905090565b606061219f826114bc565b5060006121aa61217d565b905060008151116121ca57604051806020016040528060008152506121f5565b806121d484612882565b6040516020016121e5929190613c9c565b6040516020818303038152906040525b915050919050565b60007f80ac58cd000000000000000000000000000000000000000000000000000000007bffffffffffffffffffffffffffffffffffffffffffffffffffffffff1916827bffffffffffffffffffffffffffffffffffffffffffffffffffffffff191614806122c857507f5b5e139f000000000000000000000000000000000000000000000000000000007bffffffffffffffffffffffffffffffffffffffffffffffffffffffff1916827bffffffffffffffffffffffffffffffffffffffffffffffffffffffff1916145b806122d857506122d782612950565b5b9050919050565b6000806122eb846116b2565b9050600073ffffffffffffffffffffffffffffffffffffffff168373ffffffffffffffffffffffffffffffffffffffff161461232d5761232c8184866129ba565b5b600073ffffffffffffffffffffffffffffffffffffffff168173ffffffffffffffffffffffffffffffffffffffff16146123be5761236f600085600080611e77565b6001600360008373ffffffffffffffffffffffffffffffffffffffff1673ffffffffffffffffffffffffffffffffffffffff168152602001908152602001600020600082825403925050819055505b600073ffffffffffffffffffffffffffffffffffffffff168573ffffffffffffffffffffffffffffffffffffffff1614612441576001600360008773ffffffffffffffffffffffffffffffffffffffff1673ffffffffffffffffffffffffffffffffffffffff168152602001908152602001600020600082825401925050819055505b846002600086815260200190815260200160002060006101000a81548173ffffffffffffffffffffffffffffffffffffffff021916908373ffffffffffffffffffffffffffffffffffffffff160217905550838573ffffffffffffffffffffffffffffffffffffffff168273ffffffffffffffffffffffffffffffffffffffff167fddf252ad1be2c89b69c2b068fc378daa952ba7f163c4a11628f55a4df523b3ef60405160405180910390a4809150509392505050565b600980549050600a600083815260200190815260200160002081905550600981908060018154018082558091505060019003906000526020600020016000909190919091505550565b600061254d83610c48565b90506000600860008481526020019081526020016000205490506000600760008673ffffffffffffffffffffffffffffffffffffffff1673ffffffffffffffffffffffffffffffffffffffff16815260200190815260200160002090508282146125f95760008160008581526020019081526020016000205490508082600085815260200190815260200160002081905550826008600083815260200190815260200160002081905550505b6008600085815260200190815260200160002060009055806000848152602001908152602001600020600090555050505050565b6000600160098054905061264191906136b9565b90506000600a6000848152602001908152602001600020549050600060098381548110612671576126706136ed565b5b906000526020600020015490508060098381548110612693576126926136ed565b5b906000526020600020018190555081600a600083815260200190815260200160002081905550600a60008581526020019081526020016000206000905560098054806126e2576126e1613cc0565b5b6001900381819060005260206000200160009055905550505050565b6000600161270b84610c48565b61271591906136b9565b905081600760008573ffffffffffffffffffffffffffffffffffffffff1673ffffffffffffffffffffffffffffffffffffffff168152602001908152602001600020600083815260200190815260200160002081905550806008600084815260200190815260200160002081905550505050565b600073ffffffffffffffffffffffffffffffffffffffff168273ffffffffffffffffffffffffffffffffffffffff16036127fb5760006040517f64a0ae920000000000000000000000000000000000000000000000000000000081526004016127f29190612df6565b60405180910390fd5b60006128098383600061159b565b9050600073ffffffffffffffffffffffffffffffffffffffff168173ffffffffffffffffffffffffffffffffffffffff161461287d5760006040517f73c6ac6e0000000000000000000000000000000000000000000000000000000081526004016128749190612df6565b60405180910390fd5b505050565b60606000600161289184612a7e565b01905060008167ffffffffffffffff8111156128b0576128af612f04565b5b6040519080825280601f01601f1916602001820160405280156128e25781602001600182028036833780820191505090505b509050600082602083010190505b600115612945578080600190039150507f3031323334353637383961626364656600000000000000000000000000000000600a86061a8153600a858161293957612938613cef565b5b049450600085036128f0575b819350505050919050565b60007f01ffc9a7000000000000000000000000000000000000000000000000000000007bffffffffffffffffffffffffffffffffffffffffffffffffffffffff1916827bffffffffffffffffffffffffffffffffffffffffffffffffffffffff1916149050919050565b6129c5838383611be8565b612a7957600073ffffffffffffffffffffffffffffffffffffffff168373ffffffffffffffffffffffffffffffffffffffff1603612a3a57806040517f7e273289000000000000000000000000000000000000000000000000000000008152600401612a319190612e8c565b60405180910390fd5b81816040517f177e802f000000000000000000000000000000000000000000000000000000008152600401612a70929190613541565b60405180910390fd5b505050565b600080600090507a184f03e93ff9f4daa797ed6e38ed64bf6a1f0100000000000000008310612adc577a184f03e93ff9f4daa797ed6e38ed64bf6a1f0100000000000000008381612ad257612ad1613cef565b5b0492506040810190505b6d04ee2d6d415b85acef81000000008310612b19576d04ee2d6d415b85acef81000000008381612b0f57612b0e613cef565b5b0492506020810190505b662386f26fc100008310612b4857662386f26fc100008381612b3e57612b3d613cef565b5b0492506010810190505b6305f5e1008310612b71576305f5e1008381612b6757612b66613cef565b5b0492506008810190505b6127108310612b96576127108381612b8c57612b8b613cef565b5b0492506004810190505b60648310612bb95760648381612baf57612bae613cef565b5b0492506002810190505b600a8310612bc8576001810190505b80915050919050565b6000604051905090565b600080fd5b600080fd5b60007fffffffff0000000000000000000000000000000000000000000000000000000082169050919050565b612c1a81612be5565b8114612c2557600080fd5b50565b600081359050612c3781612c11565b92915050565b600060208284031215612c5357612c52612bdb565b5b6000612c6184828501612c28565b91505092915050565b60008115159050919050565b612c7f81612c6a565b82525050565b6000602082019050612c9a6000830184612c76565b92915050565b600081519050919050565b600082825260208201905092915050565b60005b83811015612cda578082015181840152602081019050612cbf565b60008484015250505050565b6000601f19601f8301169050919050565b6000612d0282612ca0565b612d0c8185612cab565b9350612d1c818560208601612cbc565b612d2581612ce6565b840191505092915050565b60006020820190508181036000830152612d4a8184612cf7565b905092915050565b6000819050919050565b612d6581612d52565b8114612d7057600080fd5b50565b600081359050612d8281612d5c565b92915050565b600060208284031215612d9e57612d9d612bdb565b5b6000612dac84828501612d73565b91505092915050565b600073ffffffffffffffffffffffffffffffffffffffff82169050919050565b6000612de082612db5565b9050919050565b612df081612dd5565b82525050565b6000602082019050612e0b6000830184612de7565b92915050565b612e1a81612dd5565b8114612e2557600080fd5b50565b600081359050612e3781612e11565b92915050565b60008060408385031215612e5457612e53612bdb565b5b6000612e6285828601612e28565b9250506020612e7385828601612d73565b9150509250929050565b612e8681612d52565b82525050565b6000602082019050612ea16000830184612e7d565b92915050565b600080600060608486031215612ec057612ebf612bdb565b5b6000612ece86828701612e28565b9350506020612edf86828701612e28565b9250506040612ef086828701612d73565b9150509250925092565b600080fd5b600080fd5b7f4e487b7100000000000000000000000000000000000000000000000000000000600052604160045260246000fd5b612f3c82612ce6565b810181811067ffffffffffffffff82111715612f5b57612f5a612f04565b5b80604052505050565b6000612f6e612bd1565b9050612f7a8282612f33565b919050565b600067ffffffffffffffff821115612f9a57612f99612f04565b5b612fa382612ce6565b9050602081019050919050565b82818337600083830152505050565b6000612fd2612fcd84612f7f565b612f64565b905082815260208101848484011115612fee57612fed612eff565b5b612ff9848285612fb0565b509392505050565b600082601f83011261301657613015612efa565b5b8135613026848260208601612fbf565b91505092915050565b6000806040838503121561304657613045612bdb565b5b600061305485828601612e28565b925050602083013567ffffffffffffffff81111561307557613074612be0565b5b61308185828601613001565b9150509250929050565b6000602082840312156130a1576130a0612bdb565b5b60006130af84828501612e28565b91505092915050565b600081519050919050565b600082825260208201905092915050565b6000819050602082019050919050565b6130ed81612d52565b82525050565b60006130ff83836130e4565b60208301905092915050565b6000602082019050919050565b6000613123826130b8565b61312d81856130c3565b9350613138836130d4565b8060005b8381101561316957815161315088826130f3565b975061315b8361310b565b92505060018101905061313c565b5085935050505092915050565b600060208201905081810360008301526131908184613118565b905092915050565b6131a181612c6a565b81146131ac57600080fd5b50565b6000813590506131be81613198565b92915050565b600080604083850312156131db576131da612bdb565b5b60006131e985828601612e28565b92505060206131fa858286016131af565b9150509250929050565b600067ffffffffffffffff82111561321f5761321e612f04565b5b61322882612ce6565b9050602081019050919050565b600061324861324384613204565b612f64565b90508281526020810184848401111561326457613263612eff565b5b61326f848285612fb0565b509392505050565b600082601f83011261328c5761328b612efa565b5b813561329c848260208601613235565b91505092915050565b600080600080608085870312156132bf576132be612bdb565b5b60006132cd87828801612e28565b94505060206132de87828801612e28565b93505060406132ef87828801612d73565b925050606085013567ffffffffffffffff8111156133105761330f612be0565b5b61331c87828801613277565b91505092959194509250565b6000806040838503121561333f5761333e612bdb565b5b600061334d85828601612e28565b925050602061335e85828601612e28565b9150509250929050565b600067ffffffffffffffff82111561338357613382612f04565b5b602082029050602081019050919050565b600080fd5b60006133ac6133a784613368565b612f64565b905080838252602082019050602084028301858111156133cf576133ce613394565b5b835b8181101561341657803567ffffffffffffffff8111156133f4576133f3612efa565b5b8086016134018982613001565b855260208501945050506020810190506133d1565b5050509392505050565b600082601f83011261343557613434612efa565b5b8135613445848260208601613399565b91505092915050565b6000806040838503121561346557613464612bdb565b5b600061347385828601612e28565b925050602083013567ffffffffffffffff81111561349457613493612be0565b5b6134a085828601613420565b9150509250929050565b7f4e487b7100000000000000000000000000000000000000000000000000000000600052602260045260246000fd5b600060028204905060018216806134f157607f821691505b602082108103613504576135036134aa565b5b50919050565b600060608201905061351f6000830186612de7565b61352c6020830185612e7d565b6135396040830184612de7565b949350505050565b60006040820190506135566000830185612de7565b6135636020830184612e7d565b9392505050565b7f4e6f2066756e647320746f207769746864726177000000000000000000000000600082015250565b60006135a0601483612cab565b91506135ab8261356a565b602082019050919050565b600060208201905081810360008301526135cf81613593565b9050919050565b7f4d617820737570706c7920657863656564656400000000000000000000000000600082015250565b600061360c601383612cab565b9150613617826135d6565b602082019050919050565b6000602082019050818103600083015261363b816135ff565b9050919050565b7f4e487b7100000000000000000000000000000000000000000000000000000000600052601160045260246000fd5b600061367c82612d52565b91507fffffffffffffffffffffffffffffffffffffffffffffffffffffffffffffffff82036136ae576136ad613642565b5b600182019050919050565b60006136c482612d52565b91506136cf83612d52565b92508282039050818111156136e7576136e6613642565b5b92915050565b7f4e487b7100000000000000000000000000000000000000000000000000000000600052603260045260246000fd5b7f496e73756666696369656e74207061796d656e74000000000000000000000000600082015250565b6000613752601483612cab565b915061375d8261371c565b602082019050919050565b6000602082019050818103600083015261378181613745565b9050919050565b7f5175616e74697479206d7573742062652067726561746572207468616e203000600082015250565b60006137be601f83612cab565b91506137c982613788565b602082019050919050565b600060208201905081810360008301526137ed816137b1565b9050919050565b60006137ff82612d52565b915061380a83612d52565b925082820190508082111561382257613821613642565b5b92915050565b600061383382612d52565b915061383e83612d52565b925082820261384c81612d52565b9150828204841483151761386357613862613642565b5b5092915050565b600060408201905061387f6000830185612e7d565b61388c6020830184612e7d565b9392505050565b7f4e6f74206f776e6572206e6f7220617070726f76656400000000000000000000600082015250565b60006138c9601683612cab565b91506138d482613893565b602082019050919050565b600060208201905081810360008301526138f8816138bc565b9050919050565b60008190508160005260206000209050919050565b60006020601f8301049050919050565b600082821b905092915050565b6000600883026139617fffffffffffffffffffffffffffffffffffffffffffffffffffffffffffffffff82613924565b61396b8683613924565b95508019841693508086168417925050509392505050565b6000819050919050565b60006139a86139a361399e84612d52565b613983565b612d52565b9050919050565b6000819050919050565b6139c28361398d565b6139d66139ce826139af565b848454613931565b825550505050565b600090565b6139eb6139de565b6139f68184846139b9565b505050565b5b81811015613a1a57613a0f6000826139e3565b6001810190506139fc565b5050565b601f821115613a5f57613a30816138ff565b613a3984613914565b81016020851015613a48578190505b613a5c613a5485613914565b8301826139fb565b50505b505050565b600082821c905092915050565b6000613a8260001984600802613a64565b1980831691505092915050565b6000613a9b8383613a71565b9150826002028217905092915050565b613ab482612ca0565b67ffffffffffffffff811115613acd57613acc612f04565b5b613ad782546134d9565b613ae2828285613a1e565b600060209050601f831160018114613b155760008415613b03578287015190505b613b0d8582613a8f565b865550613b75565b601f198416613b23866138ff565b60005b82811015613b4b57848901518255600182019150602085019450602081019050613b26565b86831015613b685784890151613b64601f891682613a71565b8355505b6001600288020188555050505b505050505050565b600081519050919050565b600082825260208201905092915050565b6000613ba482613b7d565b613bae8185613b88565b9350613bbe818560208601612cbc565b613bc781612ce6565b840191505092915050565b6000608082019050613be76000830187612de7565b613bf46020830186612de7565b613c016040830185612e7d565b8181036060830152613c138184613b99565b905095945050505050565b600081519050613c2d81612c11565b92915050565b600060208284031215613c4957613c48612bdb565b5b6000613c5784828501613c1e565b91505092915050565b600081905092915050565b6000613c7682612ca0565b613c808185613c60565b9350613c90818560208601612cbc565b80840191505092915050565b6000613ca88285613c6b565b9150613cb48284613c6b565b91508190509392505050565b7f4e487b7100000000000000000000000000000000000000000000000000000000600052603160045260246000fd5b7f4e487b7100000000000000000000000000000000000000000000000000000000600052601260045260246000fdfea2646970667358221220b7d42d16efcec7bf00f2e5b34b20bdc90a1d1a05127b376f32d57b25f3b76a0c64736f6c63430008180033",
  "linkReferences": {},
  "deployedLinkReferences": {}
}